:040000000C947700E5
:100004000C9400000C9400000C9400000C9400006C
:100014000C9400000C9400000C9400000C9400005C
:100024000C9400000C9400000C9400000C9400004C
:100034000C9400000C9400000C9400000C9400003C
:100044000C9400000C9400000C9400000C9400002C
:100054004845463430373142502000434434303030
:100064003041452000534E37344C533237394E44D7
:10007400532000534E373438322000534E37353432
:100084003932414E2000444D373433363620005344
:100094004E373441533239384E20004344343030E3
:1000A400375542452000556E6B6E6F776E2049437D
:1000B40020000B00600254000A006B025F000E0077
:1000C400750269000800830277000B008B027F0031
:1000D400090096028A000C009F0293000B00AB02F9
:1000E4009F000C00B602AA000000F894EE27ECBBB7
:1000F400F1E0F5BFE5BF8DE0A2E0BB27ED938A9563
:10010400E9F780E098E0A0E6ED930197E9F7E6EBE4
:10011400F0E085919591009761F0A591B5910590D6
:100124001590BF01F00105900D920197E1F7FB01D5
:10013400F0CFEFE5EDBFE8E0EEBFC0E6D2E00C940F
:10014400A300E0E0EABBEBBBE7BBE8BBE4BBE5BB79
:10015400E3BFE2BFECBFEFBDEEBDEDBDECBDE7BD5F
:10016400E6BDEBBDEABDE9BDE8BDE2BDE5BDE4BD6C
:10017400E3BDE9BFE5BFE4BFEAB9E0E8E8B9E0E020
:10018400E0BFE6B9EDB9E6BF6697E0E0EC8BED8B36
:100194000E948F02E0E0EA93A4E1B0E00E947202C0
:1001A400E0E0EABBE4BBEFEFEBBBE5BBED89E0309D
:1001B40019F4DE015596A4D0ED89E03019F4DE017E
:1001C400559686D0ED89E03019F4DE015596CCD0F1
:1001D400ED89E03019F4DE015596E6D0ED89E03082
:1001E40019F4DE015596FAD0ED89E03019F4DE01F8
:1001F400559632D1ED89E03019F4DE01559605D1DA
:10020400ED89E03019F4DE01559690D0AD89A13026
:1002140029F40E948F02A0E6B2E03FC0AD89A2306B
:1002240029F40E948F02ABE6B2E037C0AD89A33057
:1002340029F40E948F02A5E7B2E02FC0AD89A43053
:1002440029F40E948F02A3E8B2E027C0AD89A5304B
:1002540029F40E948F02ABE8B2E01FC0AD89A6303A
:1002640029F40E948F02A6E9B2E017C0AD89A73035
:1002740029F40E948F02AFE9B2E00FC0AD89A83023
:1002840029F40E948F02ABEAB2E007C0ED89E030A6
:1002940031F40E948F02A6EBB2E00E9482020AD1DE
:1002A400A1E0F2D0A0E8F0D00E949302AC91F1D08A
:1002B4000E949302EC91E03021F0EC89EF5FEC8B2B
:1002C400F3CFA8ECB0E00E94A80266965DCFFFCF02
:1002D400BA93AA93E3E7EABBE7E6E4BBE3E1EBBB4B
:1002E400E1E2E5BBCA9B06C0CB9B04C09C9B02C059
:1002F4009B9B01C004C0A881B981E1E0EC93C2C01A
:10030400BA93AA93ECE5EABBEFE4E4BBE0E0EBBB11
:10031400EBE4E5BB9D9909C0CD9B02C09C9B01C049
:1003240004C0A881B981E2E0EC93ACC0BA93AA936B
:10033400E3E8EABBE7E0E4BBE1E0EBBBE3E0E5BB19
:10034400CB9B02C09B9B01C00EC0E3E0EBBBE7E08C
:100354000E949902CB9B02C09B9B01C004C0A88150
:10036400B981E3E0EC938EC0BA93AA93EEE1EABBC1
:10037400EBE0E4BBEFE1EBBBE3E0E5BBC89B04C00F
:100384009A9B02C09C9901C00EC0DC980E949E02F8
:10039400C89904C09A9B02C09C9901C004C0A8815A
:1003A400B981E4E0EC936EC0BA93AA93E8E1EABBA6
:1003B400EDE5E4BBE0E1EBBBE8E5E5BBCD9908C0C6
:1003C400CE9906C0E9B3E170E13011F09D9B01C004
:1003D40004C0A881B981E5E0EC9354C0BA93AA9310
:1003E400EBEAEABBE7E5E4BBE0E0EBBBE1E00E945B
:1003F4009902CA9B09C0D99A0E949E02CA9904C054
:10040400A881B981E6E0EC933DC0BA93AA93EFEFDB
:10041400EABBE1EEE4BBEEE1EBBBE1E2E5BB0E944B
:10042400A202999B06C09A9B04C09B9902C09C9B04
:1004340001C011C0AE9AAD9A0E94A202999B06C057
:100444009A9904C09B9B02C09C9B01C004C0A881D4
:10045400B981E7E0EC9316C0BA93AA93ECE4EABB43
:10046400E1E0E4BBE4E1EBBBE1E00E949902CC995A
:1004740009C0DA980E949E02CC9B04C0A881B9816D
:10048400E8E0EC9322960895AA93E881E2BBC2982F
:1004940004C0AA93E881E2BBC29AC198C09AA1E0C1
:1004A400B0E00E94A802C098A2E0B0E00E94A802B6
:1004B40021960895E7B3E760E7BBEFEFE1BBA4E162
:1004C400B0E00E94A802A8E3DFDFACE0DDDFA1E03A
:1004D400DBDFA2E0B0E00E94A802A6E0D5DF089529
:1004E400BA93AA93B981A881109631F0FC81EB816B
:1004F4006A8161931197E9F7EB81FC812596089550
:10050400BA93AA93E991F991A991B991CD01619115
:100514006D936623E1F7FC010895FE01FA93EA93D3
:100524000895EC89F0E0DE01AE0FBF1F0895E5BB2E
:10053400AAE0B0E00C94A802AAE0B0E00C94A802EF
:10054400A1E0B0E00E94A802AD98F6CF109639F071
:10055400A89580ED97E00197F1F71197C9F70895F1
:00000001FF
